{
  "contractName": "NewMillinneum",
  "abi": [
    {
      "constant": true,
      "inputs": [],
      "name": "EXHIBITION_DURATION_SECONDS",
      "outputs": [
        {
          "name": "",
          "type": "uint256"
        }
      ],
      "payable": false,
      "stateMutability": "view",
      "type": "function"
    },
    {
      "constant": true,
      "inputs": [],
      "name": "MEMBERSHIP_COST",
      "outputs": [
        {
          "name": "",
          "type": "uint256"
        }
      ],
      "payable": false,
      "stateMutability": "view",
      "type": "function"
    },
    {
      "constant": true,
      "inputs": [
        {
          "name": "",
          "type": "uint256"
        }
      ],
      "name": "exhibitor",
      "outputs": [
        {
          "name": "",
          "type": "address"
        }
      ],
      "payable": false,
      "stateMutability": "view",
      "type": "function"
    },
    {
      "constant": true,
      "inputs": [],
      "name": "EXHIBITOR_PROCEEDS",
      "outputs": [
        {
          "name": "",
          "type": "uint256"
        }
      ],
      "payable": false,
      "stateMutability": "view",
      "type": "function"
    },
    {
      "constant": true,
      "inputs": [
        {
          "name": "",
          "type": "address"
        }
      ],
      "name": "membership",
      "outputs": [
        {
          "name": "",
          "type": "uint256"
        }
      ],
      "payable": false,
      "stateMutability": "view",
      "type": "function"
    },
    {
      "constant": true,
      "inputs": [],
      "name": "owner",
      "outputs": [
        {
          "name": "",
          "type": "address"
        }
      ],
      "payable": false,
      "stateMutability": "view",
      "type": "function"
    },
    {
      "constant": true,
      "inputs": [],
      "name": "exhibition",
      "outputs": [
        {
          "name": "",
          "type": "uint256"
        }
      ],
      "payable": false,
      "stateMutability": "view",
      "type": "function"
    },
    {
      "constant": true,
      "inputs": [
        {
          "name": "",
          "type": "address"
        }
      ],
      "name": "pendingWithdrawals",
      "outputs": [
        {
          "name": "",
          "type": "uint256"
        }
      ],
      "payable": false,
      "stateMutability": "view",
      "type": "function"
    },
    {
      "constant": false,
      "inputs": [],
      "name": "NewMillenium",
      "outputs": [],
      "payable": false,
      "stateMutability": "nonpayable",
      "type": "function"
    },
    {
      "constant": false,
      "inputs": [],
      "name": "purchaseMembership",
      "outputs": [
        {
          "name": "",
          "type": "bool"
        }
      ],
      "payable": true,
      "stateMutability": "payable",
      "type": "function"
    },
    {
      "constant": false,
      "inputs": [
        {
          "name": "newExhibitor",
          "type": "address"
        }
      ],
      "name": "nextExhibition",
      "outputs": [],
      "payable": false,
      "stateMutability": "nonpayable",
      "type": "function"
    },
    {
      "constant": false,
      "inputs": [],
      "name": "withdraw",
      "outputs": [],
      "payable": false,
      "stateMutability": "nonpayable",
      "type": "function"
    }
  ],
  "bytecode": "0x60606040526611c37937e080006001556610b2a00671c00060025562278d0060035560006004556000600855341561003657600080fd5b6106b3806100456000396000f3006060604052600436106100ba576000357c0100000000000000000000000000000000000000000000000000000000900463ffffffff16806303f523b0146100bf57806328d2b8b1146100f85780633ccfd60b1461012157806347bbe867146101365780634e9dd581146101585780635ea2a68f14610181578063607ebe15146101e4578063772ccf5d1461020d5780638b029ad21461025a5780638da5cb5b1461026f578063ee28d2a2146102c4578063f3f43703146102ed575b600080fd5b34156100ca57600080fd5b6100f6600480803573ffffffffffffffffffffffffffffffffffffffff1690602001909190505061033a565b005b341561010357600080fd5b61010b6103bd565b6040518082815260200191505060405180910390f35b341561012c57600080fd5b6101346103c3565b005b61013e61048f565b604051808215151515815260200191505060405180910390f35b341561016357600080fd5b61016b6105ab565b6040518082815260200191505060405180910390f35b341561018c57600080fd5b6101a260048080359060200190919050506105b1565b604051808273ffffffffffffffffffffffffffffffffffffffff1673ffffffffffffffffffffffffffffffffffffffff16815260200191505060405180910390f35b34156101ef57600080fd5b6101f76105e4565b6040518082815260200191505060405180910390f35b341561021857600080fd5b610244600480803573ffffffffffffffffffffffffffffffffffffffff169060200190919050506105ea565b6040518082815260200191505060405180910390f35b341561026557600080fd5b61026d610602565b005b341561027a57600080fd5b610282610644565b604051808273ffffffffffffffffffffffffffffffffffffffff1673ffffffffffffffffffffffffffffffffffffffff16815260200191505060405180910390f35b34156102cf57600080fd5b6102d7610669565b6040518082815260200191505060405180910390f35b34156102f857600080fd5b610324600480803573ffffffffffffffffffffffffffffffffffffffff1690602001909190505061066f565b6040518082815260200191505060405180910390f35b62278d0060085411151561034d57600080fd5b426008819055506004600081548092919060010191905055508060066000600454815260200190815260200160002060006101000a81548173ffffffffffffffffffffffffffffffffffffffff021916908373ffffffffffffffffffffffffffffffffffffffff16021790555050565b60035481565b6000600760003373ffffffffffffffffffffffffffffffffffffffff1673ffffffffffffffffffffffffffffffffffffffff1681526020019081526020016000205490506000600760003373ffffffffffffffffffffffffffffffffffffffff1673ffffffffffffffffffffffffffffffffffffffff168152602001908152602001600020819055503373ffffffffffffffffffffffffffffffffffffffff166108fc829081150290604051600060405180830381858888f19350505050151561048c57600080fd5b50565b600080600154341415156104a257600080fd5b600454600560003373ffffffffffffffffffffffffffffffffffffffff1673ffffffffffffffffffffffffffffffffffffffff1681526020019081526020016000208190555060066000600454815260200190815260200160002060009054906101000a900473ffffffffffffffffffffffffffffffffffffffff169050600254600760008373ffffffffffffffffffffffffffffffffffffffff1673ffffffffffffffffffffffffffffffffffffffff1681526020019081526020016000205401600760008373ffffffffffffffffffffffffffffffffffffffff1673ffffffffffffffffffffffffffffffffffffffff168152602001908152602001600020819055505090565b60015481565b60066020528060005260406000206000915054906101000a900473ffffffffffffffffffffffffffffffffffffffff1681565b60025481565b60056020528060005260406000206000915090505481565b336000806101000a81548173ffffffffffffffffffffffffffffffffffffffff021916908373ffffffffffffffffffffffffffffffffffffffff160217905550565b6000809054906101000a900473ffffffffffffffffffffffffffffffffffffffff1681565b60045481565b600760205280600052604060002060009150905054815600a165627a7a72305820aff473f6e5ee42ca952fc1752c211238f29736f42802bbc200f68800e07dc39e0029",
  "source": "pragma solidity ^0.4.18;\n\n/**\n * New Millenium is a rare digital art gallery that allows artist to create\n * private exhibitions to showcase their work. To view the current exhibition you\n * must purchase a membership which will allow access for the duration.\n */\ncontract NewMillinneum {\n\n    address public owner;\n\n    // Cost = 0.005 ETH ~ $3.50\n    uint public MEMBERSHIP_COST = 5000000000000000;\n\n    // exhibitor takes ~95% of proceeds\n    uint public EXHIBITOR_PROCEEDS = 4700000000000000;\n\n    uint public EXHIBITION_DURATION_SECONDS = 60 * 60 * 24 * 30; // 30 days in seconds\n\n    uint public exhibition = 0;\n    \n    mapping (address => uint) public membership;\n\n    mapping (uint => address) public exhibitor;\n\n    mapping (address => uint) public pendingWithdrawals;\n\n    uint exhibitionStartUnixTimestamp = 0;\n\n    function NewMillenium()\n        public\n    {\n        owner = msg.sender;\n    }\n\n    function purchaseMembership() \n        payable\n        public\n        returns (bool) \n    {\n        // provide current exhibition membership\n        require(msg.value == MEMBERSHIP_COST);\n        membership[msg.sender] = exhibition;\n\n        address currentExhibitor = exhibitor[exhibition];\n        // exhibitor balance = balance + their membership take\n        pendingWithdrawals[currentExhibitor] = pendingWithdrawals[currentExhibitor] + EXHIBITOR_PROCEEDS;\n    }\n\n    // allow new exhibitor to initate a new exhibition\n    function nextExhibition(address newExhibitor)\n        public\n    {\n        require(exhibitionStartUnixTimestamp > 30 days);\n\n        // reset exhibition and memberships\n        exhibitionStartUnixTimestamp = now;\n        exhibition++;\n        exhibitor[exhibition] = newExhibitor;\n    }\n\n    function withdraw()\n        public\n    {\n        uint amount = pendingWithdrawals[msg.sender];\n        pendingWithdrawals[msg.sender] = 0;\n        msg.sender.transfer(amount);\n    }\n\n    \n}\n\n",
  "sourcePath": "/Users/tyndall/Documents/Projects/new-millennium/contracts/NewMillennium.sol",
  "compiler": {
    "name": "solc",
    "version": "0.4.19+commit.c4cbbb05.Emscripten.clang"
  },
  "schemaVersion": "2.0.0",
  "updatedAt": "2018-05-17T04:26:43.711Z"
}